{
  "contractName": "App",
  "abi": [
    {
      "constant": true,
      "inputs": [],
      "name": "totalCandidates",
      "outputs": [
        {
          "name": "",
          "type": "uint8"
        }
      ],
      "payable": false,
      "stateMutability": "view",
      "type": "function"
    },
    {
      "constant": true,
      "inputs": [
        {
          "name": "",
          "type": "uint8"
        }
      ],
      "name": "candidates",
      "outputs": [
        {
          "name": "id",
          "type": "uint8"
        },
        {
          "name": "name",
          "type": "string"
        },
        {
          "name": "voteCount",
          "type": "uint256"
        }
      ],
      "payable": false,
      "stateMutability": "view",
      "type": "function"
    },
    {
      "constant": false,
      "inputs": [],
      "name": "renounceOwnership",
      "outputs": [],
      "payable": false,
      "stateMutability": "nonpayable",
      "type": "function"
    },
    {
      "constant": true,
      "inputs": [],
      "name": "owner",
      "outputs": [
        {
          "name": "",
          "type": "address"
        }
      ],
      "payable": false,
      "stateMutability": "view",
      "type": "function"
    },
    {
      "constant": true,
      "inputs": [],
      "name": "isOwner",
      "outputs": [
        {
          "name": "",
          "type": "bool"
        }
      ],
      "payable": false,
      "stateMutability": "view",
      "type": "function"
    },
    {
      "constant": true,
      "inputs": [
        {
          "name": "",
          "type": "address"
        }
      ],
      "name": "voters",
      "outputs": [
        {
          "name": "",
          "type": "bool"
        }
      ],
      "payable": false,
      "stateMutability": "view",
      "type": "function"
    },
    {
      "constant": true,
      "inputs": [
        {
          "name": "",
          "type": "address"
        }
      ],
      "name": "approved",
      "outputs": [
        {
          "name": "",
          "type": "bool"
        }
      ],
      "payable": false,
      "stateMutability": "view",
      "type": "function"
    },
    {
      "constant": false,
      "inputs": [
        {
          "name": "newOwner",
          "type": "address"
        }
      ],
      "name": "transferOwnership",
      "outputs": [],
      "payable": false,
      "stateMutability": "nonpayable",
      "type": "function"
    },
    {
      "inputs": [],
      "payable": false,
      "stateMutability": "nonpayable",
      "type": "constructor"
    },
    {
      "anonymous": false,
      "inputs": [
        {
          "indexed": true,
          "name": "_candidateId",
          "type": "uint8"
        },
        {
          "indexed": false,
          "name": "_voter",
          "type": "address"
        }
      ],
      "name": "Voted",
      "type": "event"
    },
    {
      "anonymous": false,
      "inputs": [
        {
          "indexed": true,
          "name": "_id",
          "type": "uint256"
        },
        {
          "indexed": false,
          "name": "_voter",
          "type": "address"
        }
      ],
      "name": "RequestApproval",
      "type": "event"
    },
    {
      "anonymous": false,
      "inputs": [
        {
          "indexed": false,
          "name": "_voter",
          "type": "address"
        }
      ],
      "name": "VoterApproved",
      "type": "event"
    },
    {
      "anonymous": false,
      "inputs": [
        {
          "indexed": true,
          "name": "_candidateId",
          "type": "uint8"
        },
        {
          "indexed": false,
          "name": "_name",
          "type": "string"
        }
      ],
      "name": "CandidateAdded",
      "type": "event"
    },
    {
      "anonymous": false,
      "inputs": [
        {
          "indexed": true,
          "name": "previousOwner",
          "type": "address"
        },
        {
          "indexed": true,
          "name": "newOwner",
          "type": "address"
        }
      ],
      "name": "OwnershipTransferred",
      "type": "event"
    },
    {
      "constant": false,
      "inputs": [
        {
          "name": "_name",
          "type": "string"
        }
      ],
      "name": "addCandidate",
      "outputs": [],
      "payable": false,
      "stateMutability": "nonpayable",
      "type": "function"
    },
    {
      "constant": false,
      "inputs": [
        {
          "name": "_voterID",
          "type": "uint256"
        }
      ],
      "name": "registerVoter",
      "outputs": [],
      "payable": false,
      "stateMutability": "nonpayable",
      "type": "function"
    },
    {
      "constant": false,
      "inputs": [
        {
          "name": "_approvedAddr",
          "type": "address"
        }
      ],
      "name": "approveVoter",
      "outputs": [],
      "payable": false,
      "stateMutability": "nonpayable",
      "type": "function"
    },
    {
      "constant": false,
      "inputs": [
        {
          "name": "_candidateId",
          "type": "uint8"
        }
      ],
      "name": "vote",
      "outputs": [],
      "payable": false,
      "stateMutability": "nonpayable",
      "type": "function"
    }
  ],
  "bytecode": "0x60806040523480156200001157600080fd5b50336000806101000a81548173ffffffffffffffffffffffffffffffffffffffff021916908373ffffffffffffffffffffffffffffffffffffffff1602179055506000809054906101000a900473ffffffffffffffffffffffffffffffffffffffff1673ffffffffffffffffffffffffffffffffffffffff16600073ffffffffffffffffffffffffffffffffffffffff167f8be0079c531659141344cd1fd0a4f28419497f9722a3daafe3b4186f6b6457e060405160405180910390a36200011d6040805190810160405280600f81526020017f566974616c696b204275746572696e000000000000000000000000000000000081525062000210640100000000026401000000009004565b6200016c6040805190810160405280601081526020017f5361746f736869204e616b616d6f746f0000000000000000000000000000000081525062000210640100000000026401000000009004565b620001bb6040805190810160405280600e81526020017f4368616e6770656e67205a68616f00000000000000000000000000000000000081525062000210640100000000026401000000009004565b6200020a6040805190810160405280600a81526020017f4e69636b20537a61626f0000000000000000000000000000000000000000000081525062000210640100000000026401000000009004565b62000555565b620002296200044f640100000000026401000000009004565b1515620002c4576040517f08c379a00000000000000000000000000000000000000000000000000000000081526004018080602001828103825260328152602001807f6f6e6c7920746865206f776e6572206f662074686520636f6e7472616374206381526020017f616e207472616e7366657220746f6b656e73000000000000000000000000000081525060400191505060405180910390fd5b6004600081819054906101000a900460ff168092919060010191906101000a81548160ff021916908360ff16021790555050606060405190810160405280600460009054906101000a900460ff1660ff168152602001828152602001600081525060036000600460009054906101000a900460ff1660ff1660ff16815260200190815260200160002060008201518160000160006101000a81548160ff021916908360ff16021790555060208201518160010190805190602001906200038c929190620004a6565b5060408201518160020155905050600460009054906101000a900460ff1660ff167fca917e5bbbc18d5359674a32cef84c888a6855d48b99d9e65e1a688707dff5c7826040518080602001828103825283818151815260200191508051906020019080838360005b8381101562000411578082015181840152602081019050620003f4565b50505050905090810190601f1680156200043f5780820380516001836020036101000a031916815260200191505b509250505060405180910390a250565b60008060009054906101000a900473ffffffffffffffffffffffffffffffffffffffff1673ffffffffffffffffffffffffffffffffffffffff163373ffffffffffffffffffffffffffffffffffffffff1614905090565b828054600181600116156101000203166002900490600052602060002090601f016020900481019282601f10620004e957805160ff19168380011785556200051a565b828001600101855582156200051a579182015b8281111562000519578251825591602001919060010190620004fc565b5b5090506200052991906200052d565b5090565b6200055291905b808211156200054e57600081600090555060010162000534565b5090565b90565b6111aa80620005656000396000f3fe6080604052600436106100ba576000357c0100000000000000000000000000000000000000000000000000000000900463ffffffff168063119d4ddb146100bf5780633866965c14610110578063462e91ec146101415780636d6277f414610209578063715018a6146102d45780638da5cb5b146102eb5780638f32d59b14610342578063a13f2f8d14610371578063a3ec138d146103ac578063b3f98adc14610415578063d8b964e614610453578063f2fde38b146104bc575b600080fd5b3480156100cb57600080fd5b5061010e600480360360208110156100e257600080fd5b81019080803573ffffffffffffffffffffffffffffffffffffffff16906020019092919050505061050d565b005b34801561011c57600080fd5b5061012561066d565b604051808260ff1660ff16815260200191505060405180910390f35b34801561014d57600080fd5b506102076004803603602081101561016457600080fd5b810190808035906020019064010000000081111561018157600080fd5b82018360208201111561019357600080fd5b803590602001918460018302840111640100000000831117156101b557600080fd5b91908080601f016020809104026020016040519081016040528093929190818152602001838380828437600081840152601f19601f820116905080830192505050505050509192919290505050610680565b005b34801561021557600080fd5b506102456004803603602081101561022c57600080fd5b81019080803560ff1690602001909291905050506108a8565b604051808460ff1660ff16815260200180602001838152602001828103825284818151815260200191508051906020019080838360005b8381101561029757808201518184015260208101905061027c565b50505050905090810190601f1680156102c45780820380516001836020036101000a031916815260200191505b5094505050505060405180910390f35b3480156102e057600080fd5b506102e9610977565b005b3480156102f757600080fd5b50610300610ad8565b604051808273ffffffffffffffffffffffffffffffffffffffff1673ffffffffffffffffffffffffffffffffffffffff16815260200191505060405180910390f35b34801561034e57600080fd5b50610357610b01565b604051808215151515815260200191505060405180910390f35b34801561037d57600080fd5b506103aa6004803603602081101561039457600080fd5b8101908080359060200190929190505050610b58565b005b3480156103b857600080fd5b506103fb600480360360208110156103cf57600080fd5b81019080803573ffffffffffffffffffffffffffffffffffffffff169060200190929190505050610bbf565b604051808215151515815260200191505060405180910390f35b34801561042157600080fd5b506104516004803603602081101561043857600080fd5b81019080803560ff169060200190929190505050610bdf565b005b34801561045f57600080fd5b506104a26004803603602081101561047657600080fd5b81019080803573ffffffffffffffffffffffffffffffffffffffff169060200190929190505050610f11565b604051808215151515815260200191505060405180910390f35b3480156104c857600080fd5b5061050b600480360360208110156104df57600080fd5b81019080803573ffffffffffffffffffffffffffffffffffffffff169060200190929190505050610f31565b005b610515610b01565b15156105af576040517f08c379a00000000000000000000000000000000000000000000000000000000081526004018080602001828103825260328152602001807f6f6e6c7920746865206f776e6572206f662074686520636f6e7472616374206381526020017f616e207472616e7366657220746f6b656e73000000000000000000000000000081525060400191505060405180910390fd5b6001600260008373ffffffffffffffffffffffffffffffffffffffff1673ffffffffffffffffffffffffffffffffffffffff16815260200190815260200160002060006101000a81548160ff0219169083151502179055507f85e209912e11195144f49695f608785c8a31876f9d5d831813c396126a21b48481604051808273ffffffffffffffffffffffffffffffffffffffff1673ffffffffffffffffffffffffffffffffffffffff16815260200191505060405180910390a150565b600460009054906101000a900460ff1681565b610688610b01565b1515610722576040517f08c379a00000000000000000000000000000000000000000000000000000000081526004018080602001828103825260328152602001807f6f6e6c7920746865206f776e6572206f662074686520636f6e7472616374206381526020017f616e207472616e7366657220746f6b656e73000000000000000000000000000081525060400191505060405180910390fd5b6004600081819054906101000a900460ff168092919060010191906101000a81548160ff021916908360ff16021790555050606060405190810160405280600460009054906101000a900460ff1660ff168152602001828152602001600081525060036000600460009054906101000a900460ff1660ff1660ff16815260200190815260200160002060008201518160000160006101000a81548160ff021916908360ff16021790555060208201518160010190805190602001906107e89291906110d9565b5060408201518160020155905050600460009054906101000a900460ff1660ff167fca917e5bbbc18d5359674a32cef84c888a6855d48b99d9e65e1a688707dff5c7826040518080602001828103825283818151815260200191508051906020019080838360005b8381101561086b578082015181840152602081019050610850565b50505050905090810190601f1680156108985780820380516001836020036101000a031916815260200191505b509250505060405180910390a250565b60036020528060005260406000206000915090508060000160009054906101000a900460ff1690806001018054600181600116156101000203166002900480601f0160208091040260200160405190810160405280929190818152602001828054600181600116156101000203166002900480156109675780601f1061093c57610100808354040283529160200191610967565b820191906000526020600020905b81548152906001019060200180831161094a57829003601f168201915b5050505050908060020154905083565b61097f610b01565b1515610a19576040517f08c379a00000000000000000000000000000000000000000000000000000000081526004018080602001828103825260328152602001807f6f6e6c7920746865206f776e6572206f662074686520636f6e7472616374206381526020017f616e207472616e7366657220746f6b656e73000000000000000000000000000081525060400191505060405180910390fd5b600073ffffffffffffffffffffffffffffffffffffffff166000809054906101000a900473ffffffffffffffffffffffffffffffffffffffff1673ffffffffffffffffffffffffffffffffffffffff167f8be0079c531659141344cd1fd0a4f28419497f9722a3daafe3b4186f6b6457e060405160405180910390a360008060006101000a81548173ffffffffffffffffffffffffffffffffffffffff021916908373ffffffffffffffffffffffffffffffffffffffff160217905550565b60008060009054906101000a900473ffffffffffffffffffffffffffffffffffffffff16905090565b60008060009054906101000a900473ffffffffffffffffffffffffffffffffffffffff1673ffffffffffffffffffffffffffffffffffffffff163373ffffffffffffffffffffffffffffffffffffffff1614905090565b807fd777e646ae2393d6ea64a856295cf8f73625cd338c0536225d005892f850099533604051808273ffffffffffffffffffffffffffffffffffffffff1673ffffffffffffffffffffffffffffffffffffffff16815260200191505060405180910390a250565b60016020528060005260406000206000915054906101000a900460ff1681565b600160003373ffffffffffffffffffffffffffffffffffffffff1673ffffffffffffffffffffffffffffffffffffffff16815260200190815260200160002060009054906101000a900460ff16151515610ca1576040517f08c379a00000000000000000000000000000000000000000000000000000000081526004018080602001828103825260168152602001807f796f75206861766520616c726561647920766f7465640000000000000000000081525060200191505060405180910390fd5b60008160ff16118015610cc95750600460009054906101000a900460ff1660ff168160ff1611155b1515610d3d576040517f08c379a00000000000000000000000000000000000000000000000000000000081526004018080602001828103825260188152602001807f6e6f7420612076616c69642063616e646964617465204964000000000000000081525060200191505060405180910390fd5b600260003373ffffffffffffffffffffffffffffffffffffffff1673ffffffffffffffffffffffffffffffffffffffff16815260200190815260200160002060009054906101000a900460ff161515610e24576040517f08c379a00000000000000000000000000000000000000000000000000000000081526004018080602001828103825260228152602001807f596f75206e65656420746f20726567697374657220796f75722049442066697281526020017f737400000000000000000000000000000000000000000000000000000000000081525060400191505060405180910390fd5b60018060003373ffffffffffffffffffffffffffffffffffffffff1673ffffffffffffffffffffffffffffffffffffffff16815260200190815260200160002060006101000a81548160ff021916908315150217905550600360008260ff1660ff168152602001908152602001600020600201600081548092919060010191905055508060ff167fe26d09013db5853436d0e069f2b5af3caf6c53a61021da4166867166f7c90f9a33604051808273ffffffffffffffffffffffffffffffffffffffff1673ffffffffffffffffffffffffffffffffffffffff16815260200191505060405180910390a250565b60026020528060005260406000206000915054906101000a900460ff1681565b610f39610b01565b1515610fd3576040517f08c379a00000000000000000000000000000000000000000000000000000000081526004018080602001828103825260328152602001807f6f6e6c7920746865206f776e6572206f662074686520636f6e7472616374206381526020017f616e207472616e7366657220746f6b656e73000000000000000000000000000081525060400191505060405180910390fd5b610fdc81610fdf565b50565b600073ffffffffffffffffffffffffffffffffffffffff168173ffffffffffffffffffffffffffffffffffffffff161415151561101b57600080fd5b8073ffffffffffffffffffffffffffffffffffffffff166000809054906101000a900473ffffffffffffffffffffffffffffffffffffffff1673ffffffffffffffffffffffffffffffffffffffff167f8be0079c531659141344cd1fd0a4f28419497f9722a3daafe3b4186f6b6457e060405160405180910390a3806000806101000a81548173ffffffffffffffffffffffffffffffffffffffff021916908373ffffffffffffffffffffffffffffffffffffffff16021790555050565b828054600181600116156101000203166002900490600052602060002090601f016020900481019282601f1061111a57805160ff1916838001178555611148565b82800160010185558215611148579182015b8281111561114757825182559160200191906001019061112c565b5b5090506111559190611159565b5090565b61117b91905b8082111561117757600081600090555060010161115f565b5090565b9056fea165627a7a72305820cac578554fac4ce2ad50dfc262ccd6f83a3cc131075fb94ed6746506acce226f0029",
  "source": "pragma solidity 0.5.0;\n\nimport \"./Ownable.sol\";\nimport \"./SafeMath.sol\";\n\n/// @title Vote for a Candidatte\n/// @notice One vote per eth address\ncontract App is Ownable {\n\n    using SafeMath for uint256;\n    using SafeMath for uint8;\n\n    /// @notice Estructura para la info de un Candidato\n    struct Candidate {\n        uint8 id;\n        string name;\n        uint256 voteCount;\n    }\n\n    /// @notice Store voters addresses\n    mapping(address => bool) public voters;\n\n    /// @notice Approved addresses\n    mapping(address => bool) public approved;\n    \n    /// @notice Store Candidates\n    /// @return candidate by ID\n    mapping(uint8 => Candidate) public candidates;\n    \n    /// @notice Store number of candidates\n    uint8 public totalCandidates;\n\n    /// @notice Define an event when a vote is registered\n    event Voted (\n        uint8 indexed _candidateId, address _voter\n    );\n\n    /// @notice Define an event when a vote is registered\n    event RequestApproval (\n        uint256 indexed _id, address _voter\n    );\n\n     /// @notice Define an event when a vote is registered\n    event VoterApproved (\n        address _voter\n    );\n\n    /// @notice Define an event when a vote is registered\n    event CandidateAdded (\n        uint8 indexed _candidateId, string _name\n    );\n    \n    /// @notice Add default candidates    \n    /// @dev function that runs only when deployed\n    constructor () public {\n        addCandidate(\"Vitalik Buterin\");\n        addCandidate(\"Satoshi Nakamoto\");\n        addCandidate(\"Changpeng Zhao\");\n        addCandidate(\"Nick Szabo\");\n    }\n    \n    /// @notice Creat new Candidate\n    /// @dev Only owner of contract can call this\n    function addCandidate (string memory _name) public onlyOwner {\n        totalCandidates ++;\n        candidates[totalCandidates] = Candidate(totalCandidates, _name, 0);\n        emit CandidateAdded(totalCandidates, _name);\n    }\n\n    function registerVoter(uint256 _voterID) public {\n        emit RequestApproval(_voterID, msg.sender);\n    }\n\n    //After comparing data sent to DB, owner approves voter\n    function approveVoter(address _approvedAddr) public onlyOwner{\n        approved[_approvedAddr] = true;\n        emit VoterApproved(_approvedAddr);\n    }\n    \n    /// @notice Register Vote\n    /// @param  _candidateId only need the id to vote\n    /// @dev reverts if sender has already voted \n    function vote (uint8 _candidateId) public {\n        require(!voters[msg.sender], \"you have already voted\");\n        require(_candidateId > 0 && _candidateId <= totalCandidates, \"not a valid candidate Id\");\n        require(approved[msg.sender],\"You need to register your ID first\");\n        \n        voters[msg.sender] = true;\n\n        candidates[_candidateId].voteCount ++;\n\n        /// @notice Emitir evento de voto hecho\n        emit Voted(_candidateId, msg.sender);\n    }\n}\n",
  "sourcePath": "/home/wafflemakr/Desktop/GITHUB/react-app/contracts/App.sol",
  "compiler": {
    "name": "solc",
    "version": "0.5.0+commit.1d4f565a.Emscripten.clang"
  },
  "schemaVersion": "3.0.2",
  "updatedAt": "2019-04-02T02:12:31.559Z",
  "devdoc": {
    "methods": {
      "addCandidate(string)": {
        "details": "Only owner of contract can call this"
      },
      "constructor": {
        "details": "function that runs only when deployed"
      },
      "isOwner()": {
        "return": "true if `msg.sender` is the owner of the contract."
      },
      "owner()": {
        "return": "the address of the owner."
      },
      "renounceOwnership()": {
        "details": "Allows the current owner to relinquish control of the contract."
      },
      "transferOwnership(address)": {
        "details": "Allows the current owner to transfer control of the contract to a newOwner.",
        "params": {
          "newOwner": "The address to transfer ownership to."
        }
      },
      "vote(uint8)": {
        "details": "reverts if sender has already voted ",
        "params": {
          "_candidateId": "only need the id to vote"
        }
      }
    },
    "title": "Vote for a Candidatte"
  },
  "userdoc": {
    "methods": {
      "addCandidate(string)": {
        "notice": "Creat new Candidate"
      },
      "constructor": "Add default candidates    ",
      "renounceOwnership()": {
        "notice": "Renouncing to ownership will leave the contract without an owner. It will not be possible to call the functions with the `onlyOwner` modifier anymore."
      },
      "vote(uint8)": {
        "notice": "Register Vote"
      }
    },
    "notice": "One vote per eth address"
  }
}